{
  "_format": "hh-sol-artifact-1",
  "contractName": "CycleRental",
  "sourceName": "contracts/CycleRental.sol",
  "abi": [
    {
      "inputs": [],
      "stateMutability": "nonpayable",
      "type": "constructor"
    },
    {
      "inputs": [
        {
          "internalType": "address",
          "name": "owner",
          "type": "address"
        }
      ],
      "name": "OwnableInvalidOwner",
      "type": "error"
    },
    {
      "inputs": [
        {
          "internalType": "address",
          "name": "account",
          "type": "address"
        }
      ],
      "name": "OwnableUnauthorizedAccount",
      "type": "error"
    },
    {
      "inputs": [],
      "name": "ReentrancyGuardReentrantCall",
      "type": "error"
    },
    {
      "anonymous": false,
      "inputs": [
        {
          "indexed": true,
          "internalType": "uint256",
          "name": "cycleId",
          "type": "uint256"
        },
        {
          "indexed": true,
          "internalType": "address",
          "name": "owner",
          "type": "address"
        },
        {
          "indexed": false,
          "internalType": "string",
          "name": "name",
          "type": "string"
        },
        {
          "indexed": false,
          "internalType": "uint256",
          "name": "pricePerHour",
          "type": "uint256"
        }
      ],
      "name": "CycleListed",
      "type": "event"
    },
    {
      "anonymous": false,
      "inputs": [
        {
          "indexed": true,
          "internalType": "uint256",
          "name": "cycleId",
          "type": "uint256"
        },
        {
          "indexed": true,
          "internalType": "address",
          "name": "owner",
          "type": "address"
        }
      ],
      "name": "CycleRemoved",
      "type": "event"
    },
    {
      "anonymous": false,
      "inputs": [
        {
          "indexed": true,
          "internalType": "uint256",
          "name": "rentalId",
          "type": "uint256"
        },
        {
          "indexed": true,
          "internalType": "uint256",
          "name": "cycleId",
          "type": "uint256"
        },
        {
          "indexed": true,
          "internalType": "address",
          "name": "renter",
          "type": "address"
        },
        {
          "indexed": false,
          "internalType": "uint256",
          "name": "startTime",
          "type": "uint256"
        },
        {
          "indexed": false,
          "internalType": "uint256",
          "name": "endTime",
          "type": "uint256"
        }
      ],
      "name": "CycleRented",
      "type": "event"
    },
    {
      "anonymous": false,
      "inputs": [
        {
          "indexed": true,
          "internalType": "uint256",
          "name": "rentalId",
          "type": "uint256"
        },
        {
          "indexed": true,
          "internalType": "uint256",
          "name": "cycleId",
          "type": "uint256"
        },
        {
          "indexed": true,
          "internalType": "address",
          "name": "renter",
          "type": "address"
        }
      ],
      "name": "CycleReturned",
      "type": "event"
    },
    {
      "anonymous": false,
      "inputs": [
        {
          "indexed": true,
          "internalType": "uint256",
          "name": "rentalId",
          "type": "uint256"
        },
        {
          "indexed": true,
          "internalType": "address",
          "name": "reporter",
          "type": "address"
        },
        {
          "indexed": false,
          "internalType": "string",
          "name": "description",
          "type": "string"
        }
      ],
      "name": "IssueReported",
      "type": "event"
    },
    {
      "anonymous": false,
      "inputs": [
        {
          "indexed": true,
          "internalType": "address",
          "name": "previousOwner",
          "type": "address"
        },
        {
          "indexed": true,
          "internalType": "address",
          "name": "newOwner",
          "type": "address"
        }
      ],
      "name": "OwnershipTransferred",
      "type": "event"
    },
    {
      "anonymous": false,
      "inputs": [
        {
          "indexed": true,
          "internalType": "uint256",
          "name": "rentalId",
          "type": "uint256"
        },
        {
          "indexed": true,
          "internalType": "address",
          "name": "renter",
          "type": "address"
        },
        {
          "indexed": false,
          "internalType": "uint256",
          "name": "amount",
          "type": "uint256"
        }
      ],
      "name": "RefundProcessed",
      "type": "event"
    },
    {
      "inputs": [
        {
          "internalType": "uint256",
          "name": "",
          "type": "uint256"
        }
      ],
      "name": "cycles",
      "outputs": [
        {
          "internalType": "uint256",
          "name": "id",
          "type": "uint256"
        },
        {
          "internalType": "address",
          "name": "owner",
          "type": "address"
        },
        {
          "internalType": "string",
          "name": "name",
          "type": "string"
        },
        {
          "internalType": "string",
          "name": "description",
          "type": "string"
        },
        {
          "internalType": "string",
          "name": "imageUrl",
          "type": "string"
        },
        {
          "internalType": "uint256",
          "name": "pricePerHour",
          "type": "uint256"
        },
        {
          "internalType": "bool",
          "name": "isAvailable",
          "type": "bool"
        },
        {
          "internalType": "bool",
          "name": "isActive",
          "type": "bool"
        }
      ],
      "stateMutability": "view",
      "type": "function"
    },
    {
      "inputs": [],
      "name": "getAllAvailableCycles",
      "outputs": [
        {
          "internalType": "uint256[]",
          "name": "",
          "type": "uint256[]"
        }
      ],
      "stateMutability": "view",
      "type": "function"
    },
    {
      "inputs": [
        {
          "internalType": "uint256",
          "name": "_cycleId",
          "type": "uint256"
        }
      ],
      "name": "getCycle",
      "outputs": [
        {
          "components": [
            {
              "internalType": "uint256",
              "name": "id",
              "type": "uint256"
            },
            {
              "internalType": "address",
              "name": "owner",
              "type": "address"
            },
            {
              "internalType": "string",
              "name": "name",
              "type": "string"
            },
            {
              "internalType": "string",
              "name": "description",
              "type": "string"
            },
            {
              "internalType": "string",
              "name": "imageUrl",
              "type": "string"
            },
            {
              "internalType": "uint256",
              "name": "pricePerHour",
              "type": "uint256"
            },
            {
              "internalType": "bool",
              "name": "isAvailable",
              "type": "bool"
            },
            {
              "internalType": "bool",
              "name": "isActive",
              "type": "bool"
            }
          ],
          "internalType": "struct CycleRental.Cycle",
          "name": "",
          "type": "tuple"
        }
      ],
      "stateMutability": "view",
      "type": "function"
    },
    {
      "inputs": [
        {
          "internalType": "uint256",
          "name": "_rentalId",
          "type": "uint256"
        }
      ],
      "name": "getIssueReport",
      "outputs": [
        {
          "components": [
            {
              "internalType": "uint256",
              "name": "rentalId",
              "type": "uint256"
            },
            {
              "internalType": "address",
              "name": "reporter",
              "type": "address"
            },
            {
              "internalType": "string",
              "name": "description",
              "type": "string"
            },
            {
              "internalType": "uint256",
              "name": "reportTime",
              "type": "uint256"
            },
            {
              "internalType": "bool",
              "name": "isResolved",
              "type": "bool"
            },
            {
              "internalType": "bool",
              "name": "refundProcessed",
              "type": "bool"
            }
          ],
          "internalType": "struct CycleRental.IssueReport",
          "name": "",
          "type": "tuple"
        }
      ],
      "stateMutability": "view",
      "type": "function"
    },
    {
      "inputs": [
        {
          "internalType": "address",
          "name": "_owner",
          "type": "address"
        }
      ],
      "name": "getOwnerCycles",
      "outputs": [
        {
          "internalType": "uint256[]",
          "name": "",
          "type": "uint256[]"
        }
      ],
      "stateMutability": "view",
      "type": "function"
    },
    {
      "inputs": [
        {
          "internalType": "uint256",
          "name": "_rentalId",
          "type": "uint256"
        }
      ],
      "name": "getRental",
      "outputs": [
        {
          "components": [
            {
              "internalType": "uint256",
              "name": "id",
              "type": "uint256"
            },
            {
              "internalType": "uint256",
              "name": "cycleId",
              "type": "uint256"
            },
            {
              "internalType": "address",
              "name": "renter",
              "type": "address"
            },
            {
              "internalType": "uint256",
              "name": "startTime",
              "type": "uint256"
            },
            {
              "internalType": "uint256",
              "name": "endTime",
              "type": "uint256"
            },
            {
              "internalType": "uint256",
              "name": "totalCost",
              "type": "uint256"
            },
            {
              "internalType": "bool",
              "name": "isActive",
              "type": "bool"
            },
            {
              "internalType": "bool",
              "name": "isReturned",
              "type": "bool"
            },
            {
              "internalType": "bool",
              "name": "hasIssueReported",
              "type": "bool"
            }
          ],
          "internalType": "struct CycleRental.Rental",
          "name": "",
          "type": "tuple"
        }
      ],
      "stateMutability": "view",
      "type": "function"
    },
    {
      "inputs": [],
      "name": "getTotalCycles",
      "outputs": [
        {
          "internalType": "uint256",
          "name": "",
          "type": "uint256"
        }
      ],
      "stateMutability": "view",
      "type": "function"
    },
    {
      "inputs": [],
      "name": "getTotalRentals",
      "outputs": [
        {
          "internalType": "uint256",
          "name": "",
          "type": "uint256"
        }
      ],
      "stateMutability": "view",
      "type": "function"
    },
    {
      "inputs": [
        {
          "internalType": "address",
          "name": "_user",
          "type": "address"
        }
      ],
      "name": "getUserRentals",
      "outputs": [
        {
          "internalType": "uint256[]",
          "name": "",
          "type": "uint256[]"
        }
      ],
      "stateMutability": "view",
      "type": "function"
    },
    {
      "inputs": [
        {
          "internalType": "uint256",
          "name": "",
          "type": "uint256"
        }
      ],
      "name": "issueReports",
      "outputs": [
        {
          "internalType": "uint256",
          "name": "rentalId",
          "type": "uint256"
        },
        {
          "internalType": "address",
          "name": "reporter",
          "type": "address"
        },
        {
          "internalType": "string",
          "name": "description",
          "type": "string"
        },
        {
          "internalType": "uint256",
          "name": "reportTime",
          "type": "uint256"
        },
        {
          "internalType": "bool",
          "name": "isResolved",
          "type": "bool"
        },
        {
          "internalType": "bool",
          "name": "refundProcessed",
          "type": "bool"
        }
      ],
      "stateMutability": "view",
      "type": "function"
    },
    {
      "inputs": [
        {
          "internalType": "string",
          "name": "_name",
          "type": "string"
        },
        {
          "internalType": "string",
          "name": "_description",
          "type": "string"
        },
        {
          "internalType": "string",
          "name": "_imageUrl",
          "type": "string"
        },
        {
          "internalType": "uint256",
          "name": "_pricePerHour",
          "type": "uint256"
        }
      ],
      "name": "listCycle",
      "outputs": [],
      "stateMutability": "nonpayable",
      "type": "function"
    },
    {
      "inputs": [],
      "name": "maxRentalDuration",
      "outputs": [
        {
          "internalType": "uint256",
          "name": "",
          "type": "uint256"
        }
      ],
      "stateMutability": "view",
      "type": "function"
    },
    {
      "inputs": [],
      "name": "minRentalDuration",
      "outputs": [
        {
          "internalType": "uint256",
          "name": "",
          "type": "uint256"
        }
      ],
      "stateMutability": "view",
      "type": "function"
    },
    {
      "inputs": [],
      "name": "owner",
      "outputs": [
        {
          "internalType": "address",
          "name": "",
          "type": "address"
        }
      ],
      "stateMutability": "view",
      "type": "function"
    },
    {
      "inputs": [
        {
          "internalType": "address",
          "name": "",
          "type": "address"
        },
        {
          "internalType": "uint256",
          "name": "",
          "type": "uint256"
        }
      ],
      "name": "ownerCycles",
      "outputs": [
        {
          "internalType": "uint256",
          "name": "",
          "type": "uint256"
        }
      ],
      "stateMutability": "view",
      "type": "function"
    },
    {
      "inputs": [],
      "name": "platformFee",
      "outputs": [
        {
          "internalType": "uint256",
          "name": "",
          "type": "uint256"
        }
      ],
      "stateMutability": "view",
      "type": "function"
    },
    {
      "inputs": [
        {
          "internalType": "uint256",
          "name": "_rentalId",
          "type": "uint256"
        }
      ],
      "name": "processRefund",
      "outputs": [],
      "stateMutability": "nonpayable",
      "type": "function"
    },
    {
      "inputs": [
        {
          "internalType": "uint256",
          "name": "_cycleId",
          "type": "uint256"
        }
      ],
      "name": "removeCycle",
      "outputs": [],
      "stateMutability": "nonpayable",
      "type": "function"
    },
    {
      "inputs": [],
      "name": "renounceOwnership",
      "outputs": [],
      "stateMutability": "nonpayable",
      "type": "function"
    },
    {
      "inputs": [
        {
          "internalType": "uint256",
          "name": "_cycleId",
          "type": "uint256"
        },
        {
          "internalType": "uint256",
          "name": "_duration",
          "type": "uint256"
        }
      ],
      "name": "rentCycle",
      "outputs": [],
      "stateMutability": "payable",
      "type": "function"
    },
    {
      "inputs": [
        {
          "internalType": "uint256",
          "name": "",
          "type": "uint256"
        }
      ],
      "name": "rentals",
      "outputs": [
        {
          "internalType": "uint256",
          "name": "id",
          "type": "uint256"
        },
        {
          "internalType": "uint256",
          "name": "cycleId",
          "type": "uint256"
        },
        {
          "internalType": "address",
          "name": "renter",
          "type": "address"
        },
        {
          "internalType": "uint256",
          "name": "startTime",
          "type": "uint256"
        },
        {
          "internalType": "uint256",
          "name": "endTime",
          "type": "uint256"
        },
        {
          "internalType": "uint256",
          "name": "totalCost",
          "type": "uint256"
        },
        {
          "internalType": "bool",
          "name": "isActive",
          "type": "bool"
        },
        {
          "internalType": "bool",
          "name": "isReturned",
          "type": "bool"
        },
        {
          "internalType": "bool",
          "name": "hasIssueReported",
          "type": "bool"
        }
      ],
      "stateMutability": "view",
      "type": "function"
    },
    {
      "inputs": [
        {
          "internalType": "uint256",
          "name": "_rentalId",
          "type": "uint256"
        },
        {
          "internalType": "string",
          "name": "_description",
          "type": "string"
        }
      ],
      "name": "reportIssue",
      "outputs": [],
      "stateMutability": "nonpayable",
      "type": "function"
    },
    {
      "inputs": [
        {
          "internalType": "uint256",
          "name": "_rentalId",
          "type": "uint256"
        }
      ],
      "name": "returnCycle",
      "outputs": [],
      "stateMutability": "nonpayable",
      "type": "function"
    },
    {
      "inputs": [
        {
          "internalType": "uint256",
          "name": "_duration",
          "type": "uint256"
        }
      ],
      "name": "setMaxRentalDuration",
      "outputs": [],
      "stateMutability": "nonpayable",
      "type": "function"
    },
    {
      "inputs": [
        {
          "internalType": "uint256",
          "name": "_duration",
          "type": "uint256"
        }
      ],
      "name": "setMinRentalDuration",
      "outputs": [],
      "stateMutability": "nonpayable",
      "type": "function"
    },
    {
      "inputs": [
        {
          "internalType": "uint256",
          "name": "_newFee",
          "type": "uint256"
        }
      ],
      "name": "setPlatformFee",
      "outputs": [],
      "stateMutability": "nonpayable",
      "type": "function"
    },
    {
      "inputs": [
        {
          "internalType": "address",
          "name": "newOwner",
          "type": "address"
        }
      ],
      "name": "transferOwnership",
      "outputs": [],
      "stateMutability": "nonpayable",
      "type": "function"
    },
    {
      "inputs": [
        {
          "internalType": "uint256",
          "name": "_cycleId",
          "type": "uint256"
        },
        {
          "internalType": "uint256",
          "name": "_newPrice",
          "type": "uint256"
        }
      ],
      "name": "updateCyclePrice",
      "outputs": [],
      "stateMutability": "nonpayable",
      "type": "function"
    },
    {
      "inputs": [
        {
          "internalType": "address",
          "name": "",
          "type": "address"
        },
        {
          "internalType": "uint256",
          "name": "",
          "type": "uint256"
        }
      ],
      "name": "userRentals",
      "outputs": [
        {
          "internalType": "uint256",
          "name": "",
          "type": "uint256"
        }
      ],
      "stateMutability": "view",
      "type": "function"
    },
    {
      "inputs": [],
      "name": "withdrawPlatformFees",
      "outputs": [],
      "stateMutability": "nonpayable",
      "type": "function"
    }
  ],
  "bytecode": "0x60806040526005600955610e10600a5562015180600b5534801561002257600080fd5b506001600055338061004e57604051631e4fbdf760e01b81526000600482015260240160405180910390fd5b6100578161005d565b506100af565b600180546001600160a01b038381166001600160a01b0319831681179093556040519116919082907f8be0079c531659141344cd1fd0a4f28419497f9722a3daafe3b4186f6b6457e090600090a35050565b6128b580620000bf6000396000f3fe6080604052600436106101cd5760003560e01c80638c0a80c2116100f7578063d0b7830b11610095578063e4f095d911610064578063e4f095d9146105cd578063f2fde38b146105ed578063f38685601461060d578063fb203c171461063a57600080fd5b8063d0b7830b14610558578063d1ea162f1461056d578063d231b14b1461058d578063dac87ca4146105ad57600080fd5b80638f6a1473116100d15780638f6a147314610403578063a27686c414610435578063af94a1d114610455578063afbce3b91461052457600080fd5b80638c0a80c2146103b35780638da3c422146103c85780638da5cb5b146103db57600080fd5b80634fc783811161016f5780636b623c9f1161013e5780636b623c9f14610353578063715018a6146103685780637ce4026f1461037d57806385b53d861461039357600080fd5b80634fc78381146102d157806358e679ed146102e65780636249846514610306578063652bd29e1461032657600080fd5b80632026f638116101ab5780632026f6381461024a57806326232a2e1461027757806334f1a8d31461029b5780633b6702a1146102b157600080fd5b8063069cf90c146101d257806312e8e2c3146102085780631bfdd6621461022a575b600080fd5b3480156101de57600080fd5b506101f26101ed36600461211a565b61065a565b6040516101ff919061213c565b60405180910390f35b34801561021457600080fd5b50610228610223366004612180565b6106c6565b005b34801561023657600080fd5b50610228610245366004612180565b610721565b34801561025657600080fd5b5061026a610265366004612180565b61085a565b6040516101ff91906121df565b34801561028357600080fd5b5061028d60095481565b6040519081526020016101ff565b3480156102a757600080fd5b5061028d600a5481565b3480156102bd57600080fd5b506101f26102cc36600461211a565b610ad0565b3480156102dd57600080fd5b5060035461028d565b3480156102f257600080fd5b5061028d610301366004612296565b610b3a565b34801561031257600080fd5b5061028d610321366004612296565b610b6b565b34801561033257600080fd5b50610346610341366004612180565b610b87565b6040516101ff91906122c0565b34801561035f57600080fd5b506101f2610c75565b34801561037457600080fd5b50610228610d50565b34801561038957600080fd5b5061028d600b5481565b34801561039f57600080fd5b506102286103ae366004612180565b610d64565b3480156103bf57600080fd5b5060025461028d565b6102286103d6366004612338565b610f06565b3480156103e757600080fd5b506001546040516001600160a01b0390911681526020016101ff565b34801561040f57600080fd5b5061042361041e366004612180565b611448565b6040516101ff9695949392919061235a565b34801561044157600080fd5b50610228610450366004612447565b611516565b34801561046157600080fd5b506104ce610470366004612180565b60056020819052600091825260409091208054600182015460028301546003840154600485015495850154600690950154939592946001600160a01b03909216939092919060ff808216916101008104821691620100009091041689565b60408051998a5260208a01989098526001600160a01b03909616968801969096526060870193909352608086019190915260a0850152151560c084015290151560e08301521515610100820152610120016101ff565b34801561053057600080fd5b5061054461053f366004612180565b6117cf565b6040516101ff98979695949392919061248e565b34801561056457600080fd5b506102286119b9565b34801561057957600080fd5b50610228610588366004612504565b6119fa565b34801561059957600080fd5b506102286105a8366004612338565b611c02565b3480156105b957600080fd5b506102286105c8366004612180565b611cf8565b3480156105d957600080fd5b506102286105e8366004612180565b611ebe565b3480156105f957600080fd5b5061022861060836600461211a565b611ecb565b34801561061957600080fd5b5061062d610628366004612180565b611f06565b6040516101ff9190612594565b34801561064657600080fd5b50610228610655366004612180565b612048565b6001600160a01b0381166000908152600860209081526040918290208054835181840281018401909452808452606093928301828280156106ba57602002820191906000526020600020905b8154815260200190600101908083116106a6575b50505050509050919050565b6106ce612055565b601481111561071c5760405162461bcd60e51b81526020600482015260156024820152744665652063616e6e6f74206578636565642032302560581b60448201526064015b60405180910390fd5b600955565b60008181526004602052604081205482910361074f5760405162461bcd60e51b8152600401610713906125fa565b60008281526004602052604090206001015482906001600160a01b031633146107b05760405162461bcd60e51b81526020600482015260136024820152722737ba103a34329031bcb1b6329037bbb732b960691b6044820152606401610713565b60008381526004602052604090206006015460ff166108115760405162461bcd60e51b815260206004820152601a60248201527f43616e6e6f742072656d6f76652072656e746564206379636c650000000000006044820152606401610713565b600083815260046020526040808220600601805461ffff1916905551339185917fa08498bc3ec7b987af99fcb971485afe85c7abeed2da7cb3fac0c5434c89f1459190a3505050565b6108af6040518061010001604052806000815260200160006001600160a01b03168152602001606081526020016060815260200160608152602001600081526020016000151581526020016000151581525090565b6000828152600460209081526040918290208251610100810184528154815260018201546001600160a01b03169281019290925260028101805492939192918401916108fa90612628565b80601f016020809104026020016040519081016040528092919081815260200182805461092690612628565b80156109735780601f1061094857610100808354040283529160200191610973565b820191906000526020600020905b81548152906001019060200180831161095657829003601f168201915b5050505050815260200160038201805461098c90612628565b80601f01602080910402602001604051908101604052809291908181526020018280546109b890612628565b8015610a055780601f106109da57610100808354040283529160200191610a05565b820191906000526020600020905b8154815290600101906020018083116109e857829003601f168201915b50505050508152602001600482018054610a1e90612628565b80601f0160208091040260200160405190810160405280929190818152602001828054610a4a90612628565b8015610a975780601f10610a6c57610100808354040283529160200191610a97565b820191906000526020600020905b815481529060010190602001808311610a7a57829003601f168201915b50505091835250506005820154602082015260069091015460ff8082161515604084015261010090910416151560609091015292915050565b6001600160a01b0381166000908152600760209081526040918290208054835181840281018401909452808452606093928301828280156106ba57602002820191906000526020600020908154815260200190600101908083116106a65750505050509050919050565b60076020528160005260406000208181548110610b5657600080fd5b90600052602060002001600091509150505481565b60086020528160005260406000208181548110610b5657600080fd5b610be5604051806101200160405280600081526020016000815260200160006001600160a01b031681526020016000815260200160008152602001600081526020016000151581526020016000151581526020016000151581525090565b506000908152600560208181526040928390208351610120810185528154815260018201549281019290925260028101546001600160a01b03169382019390935260038301546060820152600483015460808201529082015460a082015260069091015460ff808216151560c08401526101008083048216151560e0850152620100009092041615159082015290565b6060600060025467ffffffffffffffff811115610c9457610c946123a4565b604051908082528060200260200182016040528015610cbd578160200160208202803683370190505b509050600060015b6002548111610d485760008181526004602052604090206006015460ff168015610d055750600081815260046020526040902060060154610100900460ff165b15610d365780838381518110610d1d57610d1d612662565b602090810291909101015281610d328161268e565b9250505b80610d408161268e565b915050610cc5565b508152919050565b610d58612055565b610d626000612082565b565b610d6c6120d4565b600081815260056020526040812054829103610d9a5760405162461bcd60e51b8152600401610713906126a7565b600082815260056020526040902060028101546001600160a01b03163314610df55760405162461bcd60e51b815260206004820152600e60248201526d2737ba103a3432903932b73a32b960911b6044820152606401610713565b600681015460ff16610e405760405162461bcd60e51b815260206004820152601460248201527352656e74616c206973206e6f742061637469766560601b6044820152606401610713565b8060040154421015610e945760405162461bcd60e51b815260206004820152601760248201527f52656e74616c20706572696f64206e6f7420656e6465640000000000000000006044820152606401610713565b6006808201805461ffff191661010017905560018083018054600090815260046020526040808220909401805460ff191690931790925554915133929186917f74c09dca1ed828072dfed778bb987ee7d61be0bfd2ce137233e684de584f34699190a45050610f036001600055565b50565b610f0e6120d4565b600082815260046020526040812054839103610f3c5760405162461bcd60e51b8152600401610713906125fa565b600083815260046020526040902060060154839060ff16610f985760405162461bcd60e51b81526020600482015260166024820152754379636c65206973206e6f7420617661696c61626c6560501b6044820152606401610713565b600081815260046020526040902060060154610100900460ff16610ff45760405162461bcd60e51b81526020600482015260136024820152724379636c65206973206e6f742061637469766560681b6044820152606401610713565b600a548310156110465760405162461bcd60e51b815260206004820152601960248201527f52656e74616c206475726174696f6e20746f6f2073686f7274000000000000006044820152606401610713565b600b548311156110985760405162461bcd60e51b815260206004820152601860248201527f52656e74616c206475726174696f6e20746f6f206c6f6e6700000000000000006044820152606401610713565b6000848152600460205260409020600101546001600160a01b031633036111015760405162461bcd60e51b815260206004820152601a60248201527f43616e6e6f742072656e7420796f7572206f776e206379636c650000000000006044820152606401610713565b600084815260046020526040812060050154610e10906111229086906126d6565b61112c91906126f3565b9050803410156111755760405162461bcd60e51b8152602060048201526014602482015273125b9cdd59999a58da595b9d081c185e5b595b9d60621b6044820152606401610713565b600380549060006111858361268e565b909155505060035442600061119a8783612715565b9050604051806101200160405280848152602001898152602001336001600160a01b031681526020018381526020018281526020018581526020016001151581526020016000151581526020016000151581525060056000858152602001908152602001600020600082015181600001556020820151816001015560408201518160020160006101000a8154816001600160a01b0302191690836001600160a01b03160217905550606082015181600301556080820151816004015560a0820151816005015560c08201518160060160006101000a81548160ff02191690831515021790555060e08201518160060160016101000a81548160ff0219169083151502179055506101008201518160060160026101000a81548160ff0219169083151502179055509050506000600460008a815260200190815260200160002060060160006101000a81548160ff02191690831515021790555060076000336001600160a01b03166001600160a01b03168152602001908152602001600020839080600181540180825580915050600190039060005260206000200160009091909190915055600060646009548661135191906126d6565b61135b91906126f3565b905060006113698287612728565b60008b8152600460205260408082206001015490519293506001600160a01b03169183156108fc0291849190818181858888f193505050501580156113b2573d6000803e3d6000fd5b50853411156113f357336108fc6113c98834612728565b6040518115909202916000818181858888f193505050501580156113f1573d6000803e3d6000fd5b505b604080518581526020810185905233918c9188917f23576ec1a72207a5abbea6310febd755374afabdb495f667cc83afeeab77020e910160405180910390a450505050505050506114446001600055565b5050565b60066020526000908152604090208054600182015460028301805492936001600160a01b039092169261147a90612628565b80601f01602080910402602001604051908101604052809291908181526020018280546114a690612628565b80156114f35780601f106114c8576101008083540402835291602001916114f3565b820191906000526020600020905b8154815290600101906020018083116114d657829003601f168201915b50505050600383015460049093015491929160ff80821692506101009091041686565b61151e6120d4565b60008281526005602052604081205483910361154c5760405162461bcd60e51b8152600401610713906126a7565b60008381526005602052604090206002015483906001600160a01b031633146115a85760405162461bcd60e51b815260206004820152600e60248201526d2737ba103a3432903932b73a32b960911b6044820152606401610713565b6000848152600560205260409020600681015460ff166116015760405162461bcd60e51b815260206004820152601460248201527352656e74616c206973206e6f742061637469766560601b6044820152606401610713565b600681015462010000900460ff161561166b5760405162461bcd60e51b815260206004820152602660248201527f497373756520616c7265616479207265706f7274656420666f722074686973206044820152651c995b9d185b60d21b6064820152608401610713565b60008451116116bc5760405162461bcd60e51b815260206004820152601b60248201527f4465736372697074696f6e2063616e6e6f7420626520656d70747900000000006044820152606401610713565b600681810180546201000062ff0000199091161790556040805160c08101825287815233602080830191825282840189815242606085015260006080850181905260a085018190528b815295909152929093208151815592516001840180546001600160a01b0319166001600160a01b039092169190911790559051909190600282019061174a908261278a565b506060820151600382015560808201516004909101805460a09093015115156101000261ff00199215159290921661ffff1990931692909217179055604051339086907fab22a6a33c72f8714f98ae96ca224ef00a13b534cab6fb2c7e407058ab2e93b1906117ba90889061284a565b60405180910390a35050506114446001600055565b60046020526000908152604090208054600182015460028301805492936001600160a01b039092169261180190612628565b80601f016020809104026020016040519081016040528092919081815260200182805461182d90612628565b801561187a5780601f1061184f5761010080835404028352916020019161187a565b820191906000526020600020905b81548152906001019060200180831161185d57829003601f168201915b50505050509080600301805461188f90612628565b80601f01602080910402602001604051908101604052809291908181526020018280546118bb90612628565b80156119085780601f106118dd57610100808354040283529160200191611908565b820191906000526020600020905b8154815290600101906020018083116118eb57829003601f168201915b50505050509080600401805461191d90612628565b80601f016020809104026020016040519081016040528092919081815260200182805461194990612628565b80156119965780601f1061196b57610100808354040283529160200191611996565b820191906000526020600020905b81548152906001019060200180831161197957829003601f168201915b50505050600583015460069093015491929160ff80821692506101009091041688565b6119c1612055565b6001546040516001600160a01b03909116904780156108fc02916000818181858888f19350505050158015610f03573d6000803e3d6000fd5b6000845111611a425760405162461bcd60e51b81526020600482015260146024820152734e616d652063616e6e6f7420626520656d70747960601b6044820152606401610713565b60008111611a925760405162461bcd60e51b815260206004820152601c60248201527f5072696365206d7573742062652067726561746572207468616e2030000000006044820152606401610713565b60028054906000611aa28361268e565b90915550506002805460408051610100810182528281523360208083019182528284018a8152606084018a90526080840189905260a08401889052600160c0850181905260e08501819052600087815260049093529490912083518155915193820180546001600160a01b0319166001600160a01b039095169490941790935591519293909290820190611b36908261278a565b5060608201516003820190611b4b908261278a565b5060808201516004820190611b60908261278a565b5060a0820151600582015560c08201516006909101805460e09093015115156101000261ff00199215159290921661ffff1990931692909217179055336000818152600860209081526040808320805460018101825590845291909220018390555182907f2a0f1525759d72bfbd95f4b7307fcd638e741b9b8b715a2630b7de4061121bd390611bf3908990879061285d565b60405180910390a35050505050565b600082815260046020526040812054839103611c305760405162461bcd60e51b8152600401610713906125fa565b60008381526004602052604090206001015483906001600160a01b03163314611c915760405162461bcd60e51b81526020600482015260136024820152722737ba103a34329031bcb1b6329037bbb732b960691b6044820152606401610713565b60008311611ce15760405162461bcd60e51b815260206004820152601c60248201527f5072696365206d7573742062652067726561746572207468616e2030000000006044820152606401610713565b505060009182526004602052604090912060050155565b611d00612055565b600081815260056020526040812054829103611d2e5760405162461bcd60e51b8152600401610713906126a7565b600082815260056020908152604080832060069283905292209082015462010000900460ff16611daa5760405162461bcd60e51b815260206004820152602160248201527f4e6f206973737565207265706f7274656420666f7220746869732072656e74616044820152601b60fa1b6064820152608401610713565b6004810154610100900460ff1615611e045760405162461bcd60e51b815260206004820152601860248201527f526566756e6420616c72656164792070726f63657373656400000000000000006044820152606401610713565b60048101805461ffff1916610101179055600582015460028301546040516001600160a01b03909116906108fc8315029083906000818181858888f19350505050158015611e56573d6000803e3d6000fd5b50600183810154600090815260046020908152604091829020600601805460ff1916909317909255600285015490518381526001600160a01b039091169187917f79ff6a60b3e21b3630b207e2a7b0b50b69b197d3d7ca776108ed2afb8fbac8dc9101611bf3565b611ec6612055565b600b55565b611ed3612055565b6001600160a01b038116611efd57604051631e4fbdf760e01b815260006004820152602401610713565b610f0381612082565b611f4c6040518060c001604052806000815260200160006001600160a01b0316815260200160608152602001600081526020016000151581526020016000151581525090565b600082815260066020908152604091829020825160c0810184528154815260018201546001600160a01b0316928101929092526002810180549293919291840191611f9690612628565b80601f0160208091040260200160405190810160405280929190818152602001828054611fc290612628565b801561200f5780601f10611fe45761010080835404028352916020019161200f565b820191906000526020600020905b815481529060010190602001808311611ff257829003601f168201915b50505091835250506003820154602082015260049091015460ff8082161515604084015261010090910416151560609091015292915050565b612050612055565b600a55565b6001546001600160a01b03163314610d625760405163118cdaa760e01b8152336004820152602401610713565b600180546001600160a01b038381166001600160a01b0319831681179093556040519116919082907f8be0079c531659141344cd1fd0a4f28419497f9722a3daafe3b4186f6b6457e090600090a35050565b6002600054036120f757604051633ee5aeb560e01b815260040160405180910390fd5b6002600055565b80356001600160a01b038116811461211557600080fd5b919050565b60006020828403121561212c57600080fd5b612135826120fe565b9392505050565b6020808252825182820181905260009190848201906040850190845b8181101561217457835183529284019291840191600101612158565b50909695505050505050565b60006020828403121561219257600080fd5b5035919050565b6000815180845260005b818110156121bf576020818501810151868301820152016121a3565b506000602082860101526020601f19601f83011685010191505092915050565b60208152815160208201526000602083015161220660408401826001600160a01b03169052565b506040830151610100806060850152612223610120850183612199565b91506060850151601f19808685030160808701526122418483612199565b935060808701519150808685030160a08701525061225f8382612199565b92505060a085015160c085015260c085015161227f60e086018215159052565b5060e0850151801515858301525090949350505050565b600080604083850312156122a957600080fd5b6122b2836120fe565b946020939093013593505050565b600061012082019050825182526020830151602083015260018060a01b036040840151166040830152606083015160608301526080830151608083015260a083015160a083015260c0830151151560c083015260e083015161232660e084018215159052565b50610100928301511515919092015290565b6000806040838503121561234b57600080fd5b50508035926020909101359150565b8681526001600160a01b038616602082015260c06040820181905260009061238490830187612199565b6060830195909552509115156080830152151560a0909101529392505050565b634e487b7160e01b600052604160045260246000fd5b600082601f8301126123cb57600080fd5b813567ffffffffffffffff808211156123e6576123e66123a4565b604051601f8301601f19908116603f0116810190828211818310171561240e5761240e6123a4565b8160405283815286602085880101111561242757600080fd5b836020870160208301376000602085830101528094505050505092915050565b6000806040838503121561245a57600080fd5b82359150602083013567ffffffffffffffff81111561247857600080fd5b612484858286016123ba565b9150509250929050565b8881526001600160a01b0388166020820152610100604082018190526000906124b98382018a612199565b905082810360608401526124cd8189612199565b905082810360808401526124e18188612199565b60a0840196909652505091151560c0830152151560e09091015295945050505050565b6000806000806080858703121561251a57600080fd5b843567ffffffffffffffff8082111561253257600080fd5b61253e888389016123ba565b9550602087013591508082111561255457600080fd5b612560888389016123ba565b9450604087013591508082111561257657600080fd5b50612583878288016123ba565b949793965093946060013593505050565b602081528151602082015260018060a01b0360208301511660408201526000604083015160c060608401526125cc60e0840182612199565b9050606084015160808401526080840151151560a084015260a0840151151560c08401528091505092915050565b60208082526014908201527310de58db1948191bd95cc81b9bdd08195e1a5cdd60621b604082015260600190565b600181811c9082168061263c57607f821691505b60208210810361265c57634e487b7160e01b600052602260045260246000fd5b50919050565b634e487b7160e01b600052603260045260246000fd5b634e487b7160e01b600052601160045260246000fd5b6000600182016126a0576126a0612678565b5060010190565b60208082526015908201527414995b9d185b08191bd95cc81b9bdd08195e1a5cdd605a1b604082015260600190565b80820281158282048414176126ed576126ed612678565b92915050565b60008261271057634e487b7160e01b600052601260045260246000fd5b500490565b808201808211156126ed576126ed612678565b818103818111156126ed576126ed612678565b601f82111561278557600081815260208120601f850160051c810160208610156127625750805b601f850160051c820191505b818110156127815782815560010161276e565b5050505b505050565b815167ffffffffffffffff8111156127a4576127a46123a4565b6127b8816127b28454612628565b8461273b565b602080601f8311600181146127ed57600084156127d55750858301515b600019600386901b1c1916600185901b178555612781565b600085815260208120601f198616915b8281101561281c578886015182559484019460019091019084016127fd565b508582101561283a5787850151600019600388901b60f8161c191681555b5050505050600190811b01905550565b6020815260006121356020830184612199565b6040815260006128706040830185612199565b9050826020830152939250505056fea26469706673582212203d5976a68452ee98efdf09ac293d8eaa91ad4f7118992daf35c5de6a8e3c5b9d64736f6c63430008140033",
  "linkReferences": {},
  "deployedLinkReferences": {}
}